{
  "_format": "hh-sol-artifact-1",
  "contractName": "LoyaltyProgram",
  "sourceName": "contracts/LoyaltyProgram.sol",
  "abi": [
    {
      "inputs": [
        {
          "internalType": "string",
          "name": "name",
          "type": "string"
        }
      ],
      "stateMutability": "nonpayable",
      "type": "constructor"
    },
    {
      "inputs": [
        {
          "internalType": "string",
          "name": "title",
          "type": "string"
        },
        {
          "internalType": "string",
          "name": "desc",
          "type": "string"
        },
        {
          "internalType": "string",
          "name": "imgURL",
          "type": "string"
        },
        {
          "internalType": "uint256",
          "name": "coinValue",
          "type": "uint256"
        },
        {
          "internalType": "uint256",
          "name": "minCoin",
          "type": "uint256"
        },
        {
          "internalType": "uint256",
          "name": "minimumOrderValue",
          "type": "uint256"
        },
        {
          "internalType": "uint256",
          "name": "disPercent",
          "type": "uint256"
        },
        {
          "internalType": "uint256",
          "name": "disMaxVal",
          "type": "uint256"
        },
        {
          "internalType": "uint256",
          "name": "expiryInSeconds",
          "type": "uint256"
        },
        {
          "internalType": "uint256",
          "name": "quantLmt",
          "type": "uint256"
        }
      ],
      "name": "addReward",
      "outputs": [],
      "stateMutability": "nonpayable",
      "type": "function"
    },
    {
      "inputs": [
        {
          "internalType": "uint256",
          "name": "id",
          "type": "uint256"
        }
      ],
      "name": "cancelOrder",
      "outputs": [
        {
          "internalType": "bool",
          "name": "",
          "type": "bool"
        }
      ],
      "stateMutability": "nonpayable",
      "type": "function"
    },
    {
      "inputs": [],
      "name": "customerBalance",
      "outputs": [
        {
          "components": [
            {
              "internalType": "address",
              "name": "merchant",
              "type": "address"
            },
            {
              "internalType": "uint256",
              "name": "value",
              "type": "uint256"
            },
            {
              "internalType": "uint256",
              "name": "redeem",
              "type": "uint256"
            }
          ],
          "internalType": "struct LoyaltyProgram.Coin[]",
          "name": "",
          "type": "tuple[]"
        }
      ],
      "stateMutability": "view",
      "type": "function"
    },
    {
      "inputs": [],
      "name": "customerTransaction",
      "outputs": [
        {
          "components": [
            {
              "internalType": "address",
              "name": "merchant",
              "type": "address"
            },
            {
              "internalType": "string",
              "name": "status",
              "type": "string"
            },
            {
              "internalType": "uint256",
              "name": "value",
              "type": "uint256"
            },
            {
              "components": [
                {
                  "internalType": "uint16",
                  "name": "year",
                  "type": "uint16"
                },
                {
                  "internalType": "uint8",
                  "name": "month",
                  "type": "uint8"
                },
                {
                  "internalType": "uint8",
                  "name": "day",
                  "type": "uint8"
                }
              ],
              "internalType": "struct DtLibrary.Date",
              "name": "timestamp",
              "type": "tuple"
            }
          ],
          "internalType": "struct LoyaltyProgram.Transaction[]",
          "name": "",
          "type": "tuple[]"
        }
      ],
      "stateMutability": "view",
      "type": "function"
    },
    {
      "inputs": [
        {
          "internalType": "uint256",
          "name": "id",
          "type": "uint256"
        }
      ],
      "name": "deleteReward",
      "outputs": [],
      "stateMutability": "nonpayable",
      "type": "function"
    },
    {
      "inputs": [
        {
          "internalType": "address",
          "name": "merchant",
          "type": "address"
        }
      ],
      "name": "expireReward",
      "outputs": [],
      "stateMutability": "nonpayable",
      "type": "function"
    },
    {
      "inputs": [
        {
          "internalType": "address",
          "name": "merchant",
          "type": "address"
        }
      ],
      "name": "fetchAllReward",
      "outputs": [
        {
          "components": [
            {
              "internalType": "uint256",
              "name": "id",
              "type": "uint256"
            },
            {
              "internalType": "string",
              "name": "title",
              "type": "string"
            },
            {
              "internalType": "string",
              "name": "desc",
              "type": "string"
            },
            {
              "internalType": "string",
              "name": "imgURL",
              "type": "string"
            },
            {
              "internalType": "uint256",
              "name": "coinValue",
              "type": "uint256"
            },
            {
              "internalType": "uint256",
              "name": "minCoin",
              "type": "uint256"
            },
            {
              "internalType": "uint256",
              "name": "minOdrVal",
              "type": "uint256"
            },
            {
              "internalType": "uint256",
              "name": "disPercent",
              "type": "uint256"
            },
            {
              "internalType": "uint256",
              "name": "disMaxVal",
              "type": "uint256"
            },
            {
              "internalType": "uint256",
              "name": "expiryTime",
              "type": "uint256"
            },
            {
              "internalType": "uint256",
              "name": "timestamp",
              "type": "uint256"
            },
            {
              "internalType": "uint256",
              "name": "quantLmt",
              "type": "uint256"
            },
            {
              "internalType": "uint256",
              "name": "quantOver",
              "type": "uint256"
            }
          ],
          "internalType": "struct LoyaltyProgram.Reward[]",
          "name": "",
          "type": "tuple[]"
        },
        {
          "internalType": "string",
          "name": "",
          "type": "string"
        }
      ],
      "stateMutability": "view",
      "type": "function"
    },
    {
      "inputs": [
        {
          "internalType": "address",
          "name": "merchant",
          "type": "address"
        },
        {
          "internalType": "uint256",
          "name": "orderValue",
          "type": "uint256"
        }
      ],
      "name": "fetchRedeemableReward",
      "outputs": [
        {
          "components": [
            {
              "internalType": "uint256",
              "name": "id",
              "type": "uint256"
            },
            {
              "internalType": "string",
              "name": "title",
              "type": "string"
            },
            {
              "internalType": "string",
              "name": "desc",
              "type": "string"
            },
            {
              "internalType": "string",
              "name": "imgURL",
              "type": "string"
            },
            {
              "internalType": "uint256",
              "name": "coinValue",
              "type": "uint256"
            },
            {
              "internalType": "uint256",
              "name": "minCoin",
              "type": "uint256"
            },
            {
              "internalType": "uint256",
              "name": "minOdrVal",
              "type": "uint256"
            },
            {
              "internalType": "uint256",
              "name": "disPercent",
              "type": "uint256"
            },
            {
              "internalType": "uint256",
              "name": "disMaxVal",
              "type": "uint256"
            },
            {
              "internalType": "uint256",
              "name": "expiryTime",
              "type": "uint256"
            },
            {
              "internalType": "uint256",
              "name": "timestamp",
              "type": "uint256"
            },
            {
              "internalType": "uint256",
              "name": "quantLmt",
              "type": "uint256"
            },
            {
              "internalType": "uint256",
              "name": "quantOver",
              "type": "uint256"
            }
          ],
          "internalType": "struct LoyaltyProgram.Reward[]",
          "name": "",
          "type": "tuple[]"
        },
        {
          "internalType": "uint256",
          "name": "",
          "type": "uint256"
        },
        {
          "internalType": "string",
          "name": "name",
          "type": "string"
        }
      ],
      "stateMutability": "nonpayable",
      "type": "function"
    },
    {
      "inputs": [],
      "name": "getDecayDays",
      "outputs": [
        {
          "internalType": "uint256",
          "name": "",
          "type": "uint256"
        }
      ],
      "stateMutability": "view",
      "type": "function"
    },
    {
      "inputs": [],
      "name": "getMerchantTokenomics",
      "outputs": [
        {
          "components": [
            {
              "internalType": "uint256",
              "name": "minOdrVal",
              "type": "uint256"
            },
            {
              "internalType": "uint256",
              "name": "maxCoinValue",
              "type": "uint256"
            },
            {
              "internalType": "uint256",
              "name": "currPerCoin",
              "type": "uint256"
            }
          ],
          "internalType": "struct LoyaltyProgram.Tokenomics",
          "name": "",
          "type": "tuple"
        }
      ],
      "stateMutability": "view",
      "type": "function"
    },
    {
      "inputs": [],
      "name": "getOrders",
      "outputs": [
        {
          "components": [
            {
              "internalType": "uint256",
              "name": "id",
              "type": "uint256"
            },
            {
              "internalType": "address",
              "name": "merchant",
              "type": "address"
            },
            {
              "internalType": "uint256",
              "name": "orderValue",
              "type": "uint256"
            },
            {
              "internalType": "uint256",
              "name": "delay",
              "type": "uint256"
            },
            {
              "internalType": "uint256",
              "name": "timestamp",
              "type": "uint256"
            }
          ],
          "internalType": "struct LoyaltyProgram.Order[]",
          "name": "",
          "type": "tuple[]"
        }
      ],
      "stateMutability": "view",
      "type": "function"
    },
    {
      "inputs": [],
      "name": "owner",
      "outputs": [
        {
          "internalType": "address",
          "name": "",
          "type": "address"
        }
      ],
      "stateMutability": "view",
      "type": "function"
    },
    {
      "inputs": [
        {
          "internalType": "address",
          "name": "merchant",
          "type": "address"
        },
        {
          "internalType": "uint256",
          "name": "orderValue",
          "type": "uint256"
        },
        {
          "internalType": "uint256",
          "name": "delay",
          "type": "uint256"
        }
      ],
      "name": "purchase",
      "outputs": [],
      "stateMutability": "nonpayable",
      "type": "function"
    },
    {
      "inputs": [
        {
          "internalType": "address",
          "name": "merchant",
          "type": "address"
        },
        {
          "internalType": "uint256",
          "name": "id",
          "type": "uint256"
        },
        {
          "internalType": "uint256",
          "name": "orderValue",
          "type": "uint256"
        }
      ],
      "name": "redeemReward",
      "outputs": [
        {
          "internalType": "uint256",
          "name": "",
          "type": "uint256"
        }
      ],
      "stateMutability": "nonpayable",
      "type": "function"
    },
    {
      "inputs": [
        {
          "internalType": "uint256",
          "name": "_decayDays",
          "type": "uint256"
        }
      ],
      "name": "setDecayDays",
      "outputs": [],
      "stateMutability": "nonpayable",
      "type": "function"
    },
    {
      "inputs": [
        {
          "internalType": "string",
          "name": "name",
          "type": "string"
        }
      ],
      "name": "setMerchant",
      "outputs": [],
      "stateMutability": "nonpayable",
      "type": "function"
    },
    {
      "inputs": [
        {
          "internalType": "uint256",
          "name": "minOdrVal",
          "type": "uint256"
        },
        {
          "internalType": "uint256",
          "name": "maxCoinValue",
          "type": "uint256"
        },
        {
          "internalType": "uint256",
          "name": "currPerCoin",
          "type": "uint256"
        }
      ],
      "name": "setMerchantTokenomics",
      "outputs": [],
      "stateMutability": "nonpayable",
      "type": "function"
    },
    {
      "inputs": [],
      "name": "updateBalance",
      "outputs": [],
      "stateMutability": "nonpayable",
      "type": "function"
    }
  ],
  "bytecode": "0x608060405260008055604051806060016040528060c881526020016032815260200160328152506007600082015181600001556020820151816001015560408201518160020155505060b4600b553480156200005a57600080fd5b506040516200641c3803806200641c833981810160405281019062000080919062000346565b33600160006101000a81548173ffffffffffffffffffffffffffffffffffffffff021916908373ffffffffffffffffffffffffffffffffffffffff160217905550600160026000600160009054906101000a900473ffffffffffffffffffffffffffffffffffffffff1673ffffffffffffffffffffffffffffffffffffffff1673ffffffffffffffffffffffffffffffffffffffff16815260200190815260200160002060006101000a81548160ff0219169083151502179055508060036000600160009054906101000a900473ffffffffffffffffffffffffffffffffffffffff1673ffffffffffffffffffffffffffffffffffffffff1673ffffffffffffffffffffffffffffffffffffffff1681526020019081526020016000209081620001ab9190620005e2565b5050620006c9565b6000604051905090565b600080fd5b600080fd5b600080fd5b600080fd5b6000601f19601f8301169050919050565b7f4e487b7100000000000000000000000000000000000000000000000000000000600052604160045260246000fd5b6200021c82620001d1565b810181811067ffffffffffffffff821117156200023e576200023d620001e2565b5b80604052505050565b600062000253620001b3565b905062000261828262000211565b919050565b600067ffffffffffffffff821115620002845762000283620001e2565b5b6200028f82620001d1565b9050602081019050919050565b60005b83811015620002bc5780820151818401526020810190506200029f565b60008484015250505050565b6000620002df620002d98462000266565b62000247565b905082815260208101848484011115620002fe57620002fd620001cc565b5b6200030b8482856200029c565b509392505050565b600082601f8301126200032b576200032a620001c7565b5b81516200033d848260208601620002c8565b91505092915050565b6000602082840312156200035f576200035e620001bd565b5b600082015167ffffffffffffffff81111562000380576200037f620001c2565b5b6200038e8482850162000313565b91505092915050565b600081519050919050565b7f4e487b7100000000000000000000000000000000000000000000000000000000600052602260045260246000fd5b60006002820490506001821680620003ea57607f821691505b6020821081036200040057620003ff620003a2565b5b50919050565b60008190508160005260206000209050919050565b60006020601f8301049050919050565b600082821b905092915050565b6000600883026200046a7fffffffffffffffffffffffffffffffffffffffffffffffffffffffffffffffff826200042b565b6200047686836200042b565b95508019841693508086168417925050509392505050565b6000819050919050565b6000819050919050565b6000620004c3620004bd620004b7846200048e565b62000498565b6200048e565b9050919050565b6000819050919050565b620004df83620004a2565b620004f7620004ee82620004ca565b84845462000438565b825550505050565b600090565b6200050e620004ff565b6200051b818484620004d4565b505050565b5b8181101562000543576200053760008262000504565b60018101905062000521565b5050565b601f82111562000592576200055c8162000406565b62000567846200041b565b8101602085101562000577578190505b6200058f62000586856200041b565b83018262000520565b50505b505050565b600082821c905092915050565b6000620005b76000198460080262000597565b1980831691505092915050565b6000620005d28383620005a4565b9150826002028217905092915050565b620005ed8262000397565b67ffffffffffffffff811115620006095762000608620001e2565b5b620006158254620003d1565b6200062282828562000547565b600060209050601f8311600181146200065a576000841562000645578287015190505b620006518582620005c4565b865550620006c1565b601f1984166200066a8662000406565b60005b8281101562000694578489015182556001820191506020850194506020810190506200066d565b86831015620006b45784890151620006b0601f891682620005a4565b8355505b6001600288020188555050505b505050505050565b615d4380620006d96000396000f3fe608060405234801561001057600080fd5b50600436106101165760003560e01c806398968f15116100a2578063a811a5db11610071578063a811a5db146102bb578063a9559dd7146102d7578063b2600f0e146102e1578063e7cf1ab714610312578063ed15af501461032e57610116565b806398968f15146102475780639db9d68314610263578063a2a636871461027f578063a35c34af1461029d57610116565b8063514fcac7116100e9578063514fcac7146101a157806357e64aea146101d15780638ccdda46146101ed5780638da5cb5b1461020b578063909c37151461022957610116565b8063053f97081461011b578063077b246b1461013757806314705fc5146101675780632e2dc43e14610183575b600080fd5b610135600480360381019061013091906147f4565b610360565b005b610151600480360381019061014c91906148d1565b610408565b60405161015e9190614933565b60405180910390f35b610181600480360381019061017c919061494e565b61095d565b005b61018b610b73565b6040516101989190614bb6565b60405180910390f35b6101bb60048036038101906101b69190614bd8565b610d1a565b6040516101c89190614c20565b60405180910390f35b6101eb60048036038101906101e69190614c3b565b610dca565b005b6101f5610e9d565b6040516102029190614d7f565b60405180910390f35b610213611030565b6040516102209190614db0565b60405180910390f35b610231611056565b60405161023e9190614933565b60405180910390f35b610261600480360381019061025c91906148d1565b611060565b005b61027d60048036038101906102789190614dcb565b611218565b005b610287611594565b6040516102949190614e3a565b60405180910390f35b6102a56115cc565b6040516102b29190615074565b60405180910390f35b6102d560048036038101906102d09190614bd8565b611855565b005b6102df6118ef565b005b6102fb60048036038101906102f69190614dcb565b611990565b6040516103099291906152c9565b60405180910390f35b61032c60048036038101906103279190614bd8565b611d1a565b005b61034860048036038101906103439190615300565b611dc1565b60405161035793929190615340565b60405180910390f35b6001600260003373ffffffffffffffffffffffffffffffffffffffff1673ffffffffffffffffffffffffffffffffffffffff16815260200190815260200160002060006101000a81548160ff02191690831515021790555080600360003373ffffffffffffffffffffffffffffffffffffffff1673ffffffffffffffffffffffffffffffffffffffff16815260200190815260200160002090816104049190615591565b5050565b6000600260003373ffffffffffffffffffffffffffffffffffffffff1673ffffffffffffffffffffffffffffffffffffffff16815260200190815260200160002060009054906101000a900460ff1615610497576040517f08c379a000000000000000000000000000000000000000000000000000000000815260040161048e906156d5565b60405180910390fd5b600082905060006104a886866122cd565b905060006104b5876125de565b905060006104c588848885612924565b9050801561094f576000600560008a73ffffffffffffffffffffffffffffffffffffffff1673ffffffffffffffffffffffffffffffffffffffff16815260200190815260200160002084815481106105205761051f6156f5565b5b90600052602060002090600d0201604051806101a001604052908160008201548152602001600182018054610554906153b4565b80601f0160208091040260200160405190810160405280929190818152602001828054610580906153b4565b80156105cd5780601f106105a2576101008083540402835291602001916105cd565b820191906000526020600020905b8154815290600101906020018083116105b057829003601f168201915b505050505081526020016002820180546105e6906153b4565b80601f0160208091040260200160405190810160405280929190818152602001828054610612906153b4565b801561065f5780601f106106345761010080835404028352916020019161065f565b820191906000526020600020905b81548152906001019060200180831161064257829003601f168201915b50505050508152602001600382018054610678906153b4565b80601f01602080910402602001604051908101604052809291908181526020018280546106a4906153b4565b80156106f15780601f106106c6576101008083540402835291602001916106f1565b820191906000526020600020905b8154815290600101906020018083116106d457829003601f168201915b50505050508152602001600482015481526020016005820154815260200160068201548152602001600782015481526020016008820154815260200160098201548152602001600a8201548152602001600b8201548152602001600c82015481525050905060006064868360e0015161076a9190615753565b61077491906157c4565b905081610100015181111561078c5781610100015190505b61079f8187612ce490919063ffffffff16565b95506107af848360800151612d0b565b8160800151600460003373ffffffffffffffffffffffffffffffffffffffff1673ffffffffffffffffffffffffffffffffffffffff1681526020019081526020016000208581548110610805576108046156f5565b5b9060005260206000209060030201600201600082825461082591906157f5565b925050819055506108a26001600560008d73ffffffffffffffffffffffffffffffffffffffff1673ffffffffffffffffffffffffffffffffffffffff1681526020019081526020016000208781548110610882576108816156f5565b5b90600052602060002090600d0201600c0154612e7790919063ffffffff16565b600560008c73ffffffffffffffffffffffffffffffffffffffff1673ffffffffffffffffffffffffffffffffffffffff16815260200190815260200160002086815481106108f3576108f26156f5565b5b90600052602060002090600d0201600c018190555061094c8a6040518060400160405280600681526020017f52656465656d00000000000000000000000000000000000000000000000000008152508460800151612ea3565b50505b839450505050509392505050565b600260003373ffffffffffffffffffffffffffffffffffffffff1673ffffffffffffffffffffffffffffffffffffffff16815260200190815260200160002060009054906101000a900460ff166109e9576040517f08c379a00000000000000000000000000000000000000000000000000000000081526004016109e09061589b565b60405180910390fd5b60006109f66000546130bb565b9050600560003373ffffffffffffffffffffffffffffffffffffffff1673ffffffffffffffffffffffffffffffffffffffff168152602001908152602001600020604051806101a001604052808381526020018d81526020018c81526020018b81526020018a8152602001898152602001888152602001878152602001868152602001858152602001428152602001848152602001600081525090806001815401808255809150506001900390600052602060002090600d0201600090919091909150600082015181600001556020820151816001019081610ad89190615591565b506040820151816002019081610aee9190615591565b506060820151816003019081610b049190615591565b506080820151816004015560a0820151816005015560c0820151816006015560e082015181600701556101008201518160080155610120820151816009015561014082015181600a015561016082015181600b015561018082015181600c015550505050505050505050505050565b6060600260003373ffffffffffffffffffffffffffffffffffffffff1673ffffffffffffffffffffffffffffffffffffffff16815260200190815260200160002060009054906101000a900460ff1615610c02576040517f08c379a0000000000000000000000000000000000000000000000000000000008152600401610bf9906156d5565b60405180910390fd5b600660003373ffffffffffffffffffffffffffffffffffffffff1673ffffffffffffffffffffffffffffffffffffffff168152602001908152602001600020805480602002602001604051908101604052809291908181526020016000905b82821015610d1157838290600052602060002090600502016040518060a0016040529081600082015481526020016001820160009054906101000a900473ffffffffffffffffffffffffffffffffffffffff1673ffffffffffffffffffffffffffffffffffffffff1673ffffffffffffffffffffffffffffffffffffffff168152602001600282015481526020016003820154815260200160048201548152505081526020019060010190610c61565b50505050905090565b6000600260003373ffffffffffffffffffffffffffffffffffffffff1673ffffffffffffffffffffffffffffffffffffffff16815260200190815260200160002060009054906101000a900460ff1615610da9576040517f08c379a0000000000000000000000000000000000000000000000000000000008152600401610da0906156d5565b60405180910390fd5b6000610db483613105565b9050610dbf81613306565b506001915050919050565b600160009054906101000a900473ffffffffffffffffffffffffffffffffffffffff1673ffffffffffffffffffffffffffffffffffffffff163373ffffffffffffffffffffffffffffffffffffffff1614610e5a576040517f08c379a0000000000000000000000000000000000000000000000000000000008152600401610e519061592d565b60405180910390fd5b6040518060600160405280848152602001838152602001828152506007600082015181600001556020820151816001015560408201518160020155905050505050565b6060600260003373ffffffffffffffffffffffffffffffffffffffff1673ffffffffffffffffffffffffffffffffffffffff16815260200190815260200160002060009054906101000a900460ff1615610f2c576040517f08c379a0000000000000000000000000000000000000000000000000000000008152600401610f23906156d5565b60405180910390fd5b600460003373ffffffffffffffffffffffffffffffffffffffff1673ffffffffffffffffffffffffffffffffffffffff168152602001908152602001600020805480602002602001604051908101604052809291908181526020016000905b8282101561102757838290600052602060002090600302016040518060600160405290816000820160009054906101000a900473ffffffffffffffffffffffffffffffffffffffff1673ffffffffffffffffffffffffffffffffffffffff1673ffffffffffffffffffffffffffffffffffffffff1681526020016001820154815260200160028201548152505081526020019060010190610f8b565b50505050905090565b600160009054906101000a900473ffffffffffffffffffffffffffffffffffffffff1681565b6000600b54905090565b600260003373ffffffffffffffffffffffffffffffffffffffff1673ffffffffffffffffffffffffffffffffffffffff16815260200190815260200160002060009054906101000a900460ff16156110ed576040517f08c379a00000000000000000000000000000000000000000000000000000000081526004016110e4906156d5565b60405180910390fd5b60006110fa6000546130bb565b9050600660003373ffffffffffffffffffffffffffffffffffffffff1673ffffffffffffffffffffffffffffffffffffffff1681526020019081526020016000206040518060a001604052808381526020018673ffffffffffffffffffffffffffffffffffffffff1681526020018581526020018481526020014281525090806001815401808255809150506001900390600052602060002090600502016000909190919091506000820151816000015560208201518160010160006101000a81548173ffffffffffffffffffffffffffffffffffffffff021916908373ffffffffffffffffffffffffffffffffffffffff160217905550604082015181600201556060820151816003015560808201518160040155505050505050565b6000600560008373ffffffffffffffffffffffffffffffffffffffff1673ffffffffffffffffffffffffffffffffffffffff16815260200190815260200160002080549050905060005b8181101561158f576000600560008573ffffffffffffffffffffffffffffffffffffffff1673ffffffffffffffffffffffffffffffffffffffff16815260200190815260200160002082815481106112bd576112bc6156f5565b5b90600052602060002090600d0201604051806101a0016040529081600082015481526020016001820180546112f1906153b4565b80601f016020809104026020016040519081016040528092919081815260200182805461131d906153b4565b801561136a5780601f1061133f5761010080835404028352916020019161136a565b820191906000526020600020905b81548152906001019060200180831161134d57829003601f168201915b50505050508152602001600282018054611383906153b4565b80601f01602080910402602001604051908101604052809291908181526020018280546113af906153b4565b80156113fc5780601f106113d1576101008083540402835291602001916113fc565b820191906000526020600020905b8154815290600101906020018083116113df57829003601f168201915b50505050508152602001600382018054611415906153b4565b80601f0160208091040260200160405190810160405280929190818152602001828054611441906153b4565b801561148e5780601f106114635761010080835404028352916020019161148e565b820191906000526020600020905b81548152906001019060200180831161147157829003601f168201915b50505050508152602001600482015481526020016005820154815260200160068201548152602001600782015481526020016008820154815260200160098201548152602001600a8201548152602001600b8201548152602001600c820154815250509050600061150d82610140015142612ce490919063ffffffff16565b9050600060018261151e9190615753565b90508083610120015111158061153e575082610180015183610160015111155b156115795761154c8461360a565b611560600186612ce490919063ffffffff16565b9450611576600185612ce490919063ffffffff16565b93505b50505080806115879061594d565b915050611262565b505050565b61159c614552565b60076040518060600160405290816000820154815260200160018201548152602001600282015481525050905090565b6060600260003373ffffffffffffffffffffffffffffffffffffffff1673ffffffffffffffffffffffffffffffffffffffff16815260200190815260200160002060009054906101000a900460ff161561165b576040517f08c379a0000000000000000000000000000000000000000000000000000000008152600401611652906156d5565b60405180910390fd5b600c60003373ffffffffffffffffffffffffffffffffffffffff1673ffffffffffffffffffffffffffffffffffffffff168152602001908152602001600020805480602002602001604051908101604052809291908181526020016000905b8282101561184c57838290600052602060002090600402016040518060800160405290816000820160009054906101000a900473ffffffffffffffffffffffffffffffffffffffff1673ffffffffffffffffffffffffffffffffffffffff1673ffffffffffffffffffffffffffffffffffffffff168152602001600182018054611743906153b4565b80601f016020809104026020016040519081016040528092919081815260200182805461176f906153b4565b80156117bc5780601f10611791576101008083540402835291602001916117bc565b820191906000526020600020905b81548152906001019060200180831161179f57829003601f168201915b5050505050815260200160028201548152602001600382016040518060600160405290816000820160009054906101000a900461ffff1661ffff1661ffff1681526020016000820160029054906101000a900460ff1660ff1660ff1681526020016000820160039054906101000a900460ff1660ff1660ff168152505081525050815260200190600101906116ba565b50505050905090565b600160009054906101000a900473ffffffffffffffffffffffffffffffffffffffff1673ffffffffffffffffffffffffffffffffffffffff163373ffffffffffffffffffffffffffffffffffffffff16146118e5576040517f08c379a00000000000000000000000000000000000000000000000000000000081526004016118dc9061592d565b60405180910390fd5b80600b8190555050565b600260003373ffffffffffffffffffffffffffffffffffffffff1673ffffffffffffffffffffffffffffffffffffffff16815260200190815260200160002060009054906101000a900460ff161561197c576040517f08c379a0000000000000000000000000000000000000000000000000000000008152600401611973906156d5565b60405180910390fd5b611984613939565b5061198d613c24565b50565b606080600560008473ffffffffffffffffffffffffffffffffffffffff1673ffffffffffffffffffffffffffffffffffffffff168152602001908152602001600020600360008573ffffffffffffffffffffffffffffffffffffffff1673ffffffffffffffffffffffffffffffffffffffff16815260200190815260200160002081805480602002602001604051908101604052809291908181526020016000905b82821015611c7f57838290600052602060002090600d0201604051806101a001604052908160008201548152602001600182018054611a70906153b4565b80601f0160208091040260200160405190810160405280929190818152602001828054611a9c906153b4565b8015611ae95780601f10611abe57610100808354040283529160200191611ae9565b820191906000526020600020905b815481529060010190602001808311611acc57829003601f168201915b50505050508152602001600282018054611b02906153b4565b80601f0160208091040260200160405190810160405280929190818152602001828054611b2e906153b4565b8015611b7b5780601f10611b5057610100808354040283529160200191611b7b565b820191906000526020600020905b815481529060010190602001808311611b5e57829003601f168201915b50505050508152602001600382018054611b94906153b4565b80601f0160208091040260200160405190810160405280929190818152602001828054611bc0906153b4565b8015611c0d5780601f10611be257610100808354040283529160200191611c0d565b820191906000526020600020905b815481529060010190602001808311611bf057829003601f168201915b50505050508152602001600482015481526020016005820154815260200160068201548152602001600782015481526020016008820154815260200160098201548152602001600a8201548152602001600b8201548152602001600c8201548152505081526020019060010190611a32565b505050509150808054611c91906153b4565b80601f0160208091040260200160405190810160405280929190818152602001828054611cbd906153b4565b8015611d0a5780601f10611cdf57610100808354040283529160200191611d0a565b820191906000526020600020905b815481529060010190602001808311611ced57829003601f168201915b5050505050905091509150915091565b600260003373ffffffffffffffffffffffffffffffffffffffff1673ffffffffffffffffffffffffffffffffffffffff16815260200190815260200160002060009054906101000a900460ff16611da6576040517f08c379a0000000000000000000000000000000000000000000000000000000008152600401611d9d9061589b565b60405180910390fd5b6000611db233836122cd565b9050611dbd8161360a565b5050565b606060006060600260003373ffffffffffffffffffffffffffffffffffffffff1673ffffffffffffffffffffffffffffffffffffffff16815260200190815260200160002060009054906101000a900460ff1615611e54576040517f08c379a0000000000000000000000000000000000000000000000000000000008152600401611e4b906156d5565b60405180910390fd5b6000611e5f866125de565b90506000600560008873ffffffffffffffffffffffffffffffffffffffff1673ffffffffffffffffffffffffffffffffffffffff16815260200190815260200160002080549050905060008167ffffffffffffffff811115611ec457611ec36146c9565b5b604051908082528060200260200182016040528015611efd57816020015b611eea614573565b815260200190600190039081611ee25790505b5090506000805b838110156121ee576000611f1a8b838c89612924565b905080156121da576000600560008d73ffffffffffffffffffffffffffffffffffffffff1673ffffffffffffffffffffffffffffffffffffffff1681526020019081526020016000208381548110611f7557611f746156f5565b5b90600052602060002090600d0201604051806101a001604052908160008201548152602001600182018054611fa9906153b4565b80601f0160208091040260200160405190810160405280929190818152602001828054611fd5906153b4565b80156120225780601f10611ff757610100808354040283529160200191612022565b820191906000526020600020905b81548152906001019060200180831161200557829003601f168201915b5050505050815260200160028201805461203b906153b4565b80601f0160208091040260200160405190810160405280929190818152602001828054612067906153b4565b80156120b45780601f10612089576101008083540402835291602001916120b4565b820191906000526020600020905b81548152906001019060200180831161209757829003601f168201915b505050505081526020016003820180546120cd906153b4565b80601f01602080910402602001604051908101604052809291908181526020018280546120f9906153b4565b80156121465780601f1061211b57610100808354040283529160200191612146565b820191906000526020600020905b81548152906001019060200180831161212957829003601f168201915b50505050508152602001600482015481526020016005820154815260200160068201548152602001600782015481526020016008820154815260200160098201548152602001600a8201548152602001600b8201548152602001600c820154815250509050808585815181106121bf576121be6156f5565b5b602002602001018190525083806121d59061594d565b945050505b5080806121e69061594d565b915050611f04565b508181600360008c73ffffffffffffffffffffffffffffffffffffffff1673ffffffffffffffffffffffffffffffffffffffff16815260200190815260200160002080805461223c906153b4565b80601f0160208091040260200160405190810160405280929190818152602001828054612268906153b4565b80156122b55780601f1061228a576101008083540402835291602001916122b5565b820191906000526020600020905b81548152906001019060200180831161229857829003601f168201915b50505050509050965096509650505050509250925092565b600080600560008573ffffffffffffffffffffffffffffffffffffffff1673ffffffffffffffffffffffffffffffffffffffff1681526020019081526020016000208054905090506000805b828110156125d2576000600560008873ffffffffffffffffffffffffffffffffffffffff1673ffffffffffffffffffffffffffffffffffffffff1681526020019081526020016000208281548110612374576123736156f5565b5b90600052602060002090600d0201604051806101a0016040529081600082015481526020016001820180546123a8906153b4565b80601f01602080910402602001604051908101604052809291908181526020018280546123d4906153b4565b80156124215780601f106123f657610100808354040283529160200191612421565b820191906000526020600020905b81548152906001019060200180831161240457829003601f168201915b5050505050815260200160028201805461243a906153b4565b80601f0160208091040260200160405190810160405280929190818152602001828054612466906153b4565b80156124b35780601f10612488576101008083540402835291602001916124b3565b820191906000526020600020905b81548152906001019060200180831161249657829003601f168201915b505050505081526020016003820180546124cc906153b4565b80601f01602080910402602001604051908101604052809291908181526020018280546124f8906153b4565b80156125455780601f1061251a57610100808354040283529160200191612545565b820191906000526020600020905b81548152906001019060200180831161252857829003601f168201915b50505050508152602001600482015481526020016005820154815260200160068201548152602001600782015481526020016008820154815260200160098201548152602001600a8201548152602001600b8201548152602001600c820154815250509050858160000151036125be57819250506125d2565b5080806125ca9061594d565b915050612319565b50809250505092915050565b6000600260003373ffffffffffffffffffffffffffffffffffffffff1673ffffffffffffffffffffffffffffffffffffffff16815260200190815260200160002060009054906101000a900460ff161561266d576040517f08c379a0000000000000000000000000000000000000000000000000000000008152600401612664906156d5565b60405180910390fd5b6000600460003373ffffffffffffffffffffffffffffffffffffffff1673ffffffffffffffffffffffffffffffffffffffff168152602001908152602001600020805490509050600080600090505b82811015612919576000600460003373ffffffffffffffffffffffffffffffffffffffff1673ffffffffffffffffffffffffffffffffffffffff1681526020019081526020016000208281548110612717576127166156f5565b5b90600052602060002090600302016040518060600160405290816000820160009054906101000a900473ffffffffffffffffffffffffffffffffffffffff1673ffffffffffffffffffffffffffffffffffffffff1673ffffffffffffffffffffffffffffffffffffffff1681526020016001820154815260200160028201548152505090508573ffffffffffffffffffffffffffffffffffffffff16816000015173ffffffffffffffffffffffffffffffffffffffff16036127dc5781925050612919565b6127f0600185612ce490919063ffffffff16565b820361290557600460003373ffffffffffffffffffffffffffffffffffffffff1673ffffffffffffffffffffffffffffffffffffffff16815260200190815260200160002060405180606001604052808873ffffffffffffffffffffffffffffffffffffffff168152602001600081526020016000815250908060018154018082558091505060019003906000526020600020906003020160009091909190915060008201518160000160006101000a81548173ffffffffffffffffffffffffffffffffffffffff021916908373ffffffffffffffffffffffffffffffffffffffff16021790555060208201518160010155604082015181600201555050612902600183612e7790919063ffffffff16565b92505b5080806129119061594d565b9150506126bc565b508092505050919050565b6000600260003373ffffffffffffffffffffffffffffffffffffffff1673ffffffffffffffffffffffffffffffffffffffff16815260200190815260200160002060009054906101000a900460ff16156129b3576040517f08c379a00000000000000000000000000000000000000000000000000000000081526004016129aa906156d5565b60405180910390fd5b600080600460003373ffffffffffffffffffffffffffffffffffffffff1673ffffffffffffffffffffffffffffffffffffffff1681526020019081526020016000208481548110612a0757612a066156f5565b5b90600052602060002090600302016001015490506000600560008973ffffffffffffffffffffffffffffffffffffffff1673ffffffffffffffffffffffffffffffffffffffff1681526020019081526020016000208781548110612a6e57612a6d6156f5565b5b90600052602060002090600d0201604051806101a001604052908160008201548152602001600182018054612aa2906153b4565b80601f0160208091040260200160405190810160405280929190818152602001828054612ace906153b4565b8015612b1b5780601f10612af057610100808354040283529160200191612b1b565b820191906000526020600020905b815481529060010190602001808311612afe57829003601f168201915b50505050508152602001600282018054612b34906153b4565b80601f0160208091040260200160405190810160405280929190818152602001828054612b60906153b4565b8015612bad5780601f10612b8257610100808354040283529160200191612bad565b820191906000526020600020905b815481529060010190602001808311612b9057829003601f168201915b50505050508152602001600382018054612bc6906153b4565b80601f0160208091040260200160405190810160405280929190818152602001828054612bf2906153b4565b8015612c3f5780601f10612c1457610100808354040283529160200191612c3f565b820191906000526020600020905b815481529060010190602001808311612c2257829003601f168201915b50505050508152602001600482015481526020016005820154815260200160068201548152602001600782015481526020016008820154815260200160098201548152602001600a8201548152602001600b8201548152602001600c8201548152505090508060a001518210158015612cbc575080608001518210155b8015612ccc57508060c001518610155b15612cd657600192505b829350505050949350505050565b600082821115612cf757612cf6615995565b5b8183612d0391906159c4565b905092915050565b600260003373ffffffffffffffffffffffffffffffffffffffff1673ffffffffffffffffffffffffffffffffffffffff16815260200190815260200160002060009054906101000a900460ff1615612d98576040517f08c379a0000000000000000000000000000000000000000000000000000000008152600401612d8f906156d5565b60405180910390fd5b612e0d81600460003373ffffffffffffffffffffffffffffffffffffffff1673ffffffffffffffffffffffffffffffffffffffff1681526020019081526020016000208481548110612ded57612dec6156f5565b5b906000526020600020906003020160010154612ce490919063ffffffff16565b600460003373ffffffffffffffffffffffffffffffffffffffff1673ffffffffffffffffffffffffffffffffffffffff1681526020019081526020016000208381548110612e5e57612e5d6156f5565b5b9060005260206000209060030201600101819055505050565b6000808284612e8691906157f5565b905083811015612e9957612e98615995565b5b8091505092915050565b600260003373ffffffffffffffffffffffffffffffffffffffff1673ffffffffffffffffffffffffffffffffffffffff16815260200190815260200160002060009054906101000a900460ff1615612f30576040517f08c379a0000000000000000000000000000000000000000000000000000000008152600401612f27906156d5565b60405180910390fd5b6000612f3b42613eb6565b9050600c60003373ffffffffffffffffffffffffffffffffffffffff1673ffffffffffffffffffffffffffffffffffffffff16815260200190815260200160002060405180608001604052808673ffffffffffffffffffffffffffffffffffffffff16815260200185815260200184815260200183815250908060018154018082558091505060019003906000526020600020906004020160009091909190915060008201518160000160006101000a81548173ffffffffffffffffffffffffffffffffffffffff021916908373ffffffffffffffffffffffffffffffffffffffff16021790555060208201518160010190816130389190615591565b506040820151816002015560608201518160030160008201518160000160006101000a81548161ffff021916908361ffff16021790555060208201518160000160026101000a81548160ff021916908360ff16021790555060408201518160000160036101000a81548160ff021916908360ff1602179055505050505050505050565b6000804230846040516020016130d393929190615a61565b6040516020818303038152906040528051906020012060001c905082806130f99061594d565b93505080915050919050565b6000600260003373ffffffffffffffffffffffffffffffffffffffff1673ffffffffffffffffffffffffffffffffffffffff16815260200190815260200160002060009054906101000a900460ff1615613194576040517f08c379a000000000000000000000000000000000000000000000000000000000815260040161318b906156d5565b60405180910390fd5b600080600660003373ffffffffffffffffffffffffffffffffffffffff1673ffffffffffffffffffffffffffffffffffffffff16815260200190815260200160002080549050905060005b818110156132fb576000600660003373ffffffffffffffffffffffffffffffffffffffff1673ffffffffffffffffffffffffffffffffffffffff168152602001908152602001600020828154811061323a576132396156f5565b5b90600052602060002090600502016040518060a0016040529081600082015481526020016001820160009054906101000a900473ffffffffffffffffffffffffffffffffffffffff1673ffffffffffffffffffffffffffffffffffffffff1673ffffffffffffffffffffffffffffffffffffffff16815260200160028201548152602001600382015481526020016004820154815250509050858160000151036132e757819350506132fb565b5080806132f39061594d565b9150506131df565b508192505050919050565b6000600260003373ffffffffffffffffffffffffffffffffffffffff1673ffffffffffffffffffffffffffffffffffffffff16815260200190815260200160002060009054906101000a900460ff1615613395576040517f08c379a000000000000000000000000000000000000000000000000000000000815260040161338c906156d5565b60405180910390fd5b6000600660003373ffffffffffffffffffffffffffffffffffffffff1673ffffffffffffffffffffffffffffffffffffffff168152602001908152602001600020805490509050600660003373ffffffffffffffffffffffffffffffffffffffff1673ffffffffffffffffffffffffffffffffffffffff16815260200190815260200160002061342f600183612ce490919063ffffffff16565b815481106134405761343f6156f5565b5b9060005260206000209060050201600660003373ffffffffffffffffffffffffffffffffffffffff1673ffffffffffffffffffffffffffffffffffffffff168152602001908152602001600020848154811061349f5761349e6156f5565b5b9060005260206000209060050201600082015481600001556001820160009054906101000a900473ffffffffffffffffffffffffffffffffffffffff168160010160006101000a81548173ffffffffffffffffffffffffffffffffffffffff021916908373ffffffffffffffffffffffffffffffffffffffff160217905550600282015481600201556003820154816003015560048201548160040155905050600660003373ffffffffffffffffffffffffffffffffffffffff1673ffffffffffffffffffffffffffffffffffffffff16815260200190815260200160002080548061358e5761358d615a9e565b5b60019003818190600052602060002090600502016000808201600090556001820160006101000a81549073ffffffffffffffffffffffffffffffffffffffff021916905560028201600090556003820160009055600482016000905550509055613602600182612ce490919063ffffffff16565b915050919050565b600260003373ffffffffffffffffffffffffffffffffffffffff1673ffffffffffffffffffffffffffffffffffffffff16815260200190815260200160002060009054906101000a900460ff16613696576040517f08c379a000000000000000000000000000000000000000000000000000000000815260040161368d9061589b565b60405180910390fd5b6000600560003373ffffffffffffffffffffffffffffffffffffffff1673ffffffffffffffffffffffffffffffffffffffff168152602001908152602001600020805490509050600560003373ffffffffffffffffffffffffffffffffffffffff1673ffffffffffffffffffffffffffffffffffffffff16815260200190815260200160002060018261372991906159c4565b8154811061373a576137396156f5565b5b90600052602060002090600d0201600560003373ffffffffffffffffffffffffffffffffffffffff1673ffffffffffffffffffffffffffffffffffffffff1681526020019081526020016000208381548110613799576137986156f5565b5b90600052602060002090600d020160008201548160000155600182018160010190816137c59190615ae3565b50600282018160020190816137da9190615ae3565b50600382018160030190816137ef9190615ae3565b50600482015481600401556005820154816005015560068201548160060155600782015481600701556008820154816008015560098201548160090155600a82015481600a0155600b82015481600b0155600c82015481600c0155905050600560003373ffffffffffffffffffffffffffffffffffffffff1673ffffffffffffffffffffffffffffffffffffffff16815260200190815260200160002080548061389c5761389b615a9e565b5b60019003818190600052602060002090600d02016000808201600090556001820160006138c991906145db565b6002820160006138d991906145db565b6003820160006138e991906145db565b600482016000905560058201600090556006820160009055600782016000905560088201600090556009820160009055600a820160009055600b820160009055600c820160009055505090555050565b6000600260003373ffffffffffffffffffffffffffffffffffffffff1673ffffffffffffffffffffffffffffffffffffffff16815260200190815260200160002060009054906101000a900460ff16156139c8576040517f08c379a00000000000000000000000000000000000000000000000000000000081526004016139bf906156d5565b60405180910390fd5b6000600a60003373ffffffffffffffffffffffffffffffffffffffff1673ffffffffffffffffffffffffffffffffffffffff16815260200190815260200160002090506000613a1682613ff4565b03613a25576000915050613c21565b6000613a3082614011565b90506000613a4b826000015142612ce490919063ffffffff16565b90506000600182613a5c9190615753565b90505b600b548110613c18576000836020015190506000613a8085604001516125de565b90506000600460003373ffffffffffffffffffffffffffffffffffffffff1673ffffffffffffffffffffffffffffffffffffffff1681526020019081526020016000208281548110613ad557613ad46156f5565b5b9060005260206000209060030201600201549050828111613b6e576000600460003373ffffffffffffffffffffffffffffffffffffffff1673ffffffffffffffffffffffffffffffffffffffff1681526020019081526020016000208381548110613b4357613b426156f5565b5b906000526020600020906003020160020181905550613b6b8184612ce490919063ffffffff16565b92505b613b788284612d0b565b613bbc86604001516040518060400160405280600581526020017f446563617900000000000000000000000000000000000000000000000000000081525085612ea3565b613bc587614107565b6000613bd088613ff4565b03613bdd57505050613c18565b613be687614011565b9550613bff866000015142612ce490919063ffffffff16565b9450600185613c0e9190615753565b9350505050613a5f565b60019450505050505b90565b6000600260003373ffffffffffffffffffffffffffffffffffffffff1673ffffffffffffffffffffffffffffffffffffffff16815260200190815260200160002060009054906101000a900460ff1615613cb3576040517f08c379a0000000000000000000000000000000000000000000000000000000008152600401613caa906156d5565b60405180910390fd5b6000600660003373ffffffffffffffffffffffffffffffffffffffff1673ffffffffffffffffffffffffffffffffffffffff16815260200190815260200160002080549050905060005b81811015613ead576000600660003373ffffffffffffffffffffffffffffffffffffffff1673ffffffffffffffffffffffffffffffffffffffff1681526020019081526020016000208281548110613d5857613d576156f5565b5b90600052602060002090600502016040518060a0016040529081600082015481526020016001820160009054906101000a900473ffffffffffffffffffffffffffffffffffffffff1673ffffffffffffffffffffffffffffffffffffffff1673ffffffffffffffffffffffffffffffffffffffff168152602001600282015481526020016003820154815260200160048201548152505090506000816080015142613e0391906159c4565b90506000600182613e149190615753565b905080836060015111613e9757600760000154836040015110613e75576000613e638460400151600160009054906101000a900473ffffffffffffffffffffffffffffffffffffffff166141d0565b9050613e73818560200151614321565b505b613e7e84613306565b9450613e94600185612ce490919063ffffffff16565b93505b5050508080613ea59061594d565b915050613cfd565b50600191505090565b613ebe61461b565b6000620151809050600261016d8285613ed791906157c4565b613ee191906157c4565b613eeb91906159c4565b6107b2613ef891906157f5565b826000019061ffff16908161ffff1681525050600061016d8260026107b28660000151613f259190615bcb565b613f2f9190615c01565b61ffff16613f3d9190615753565b613f479190615753565b84613f5291906159c4565b90506001601e83613f639190615753565b82613f6e91906157c4565b613f789190615c37565b836020019060ff16908160ff16815250506000601e8360018660200151613f9f9190615c6c565b60ff16613fac9190615753565b613fb69190615753565b82613fc191906159c4565b905060018382613fd191906157c4565b613fdb9190615c37565b846040019060ff16908160ff1681525050505050919050565b60008160010154826002015461400a91906159c4565b9050919050565b614019614646565b8160010154826002015411614063576040517f08c379a000000000000000000000000000000000000000000000000000000000815260040161405a90615ced565b60405180910390fd5b8160000182600101548154811061407d5761407c6156f5565b5b906000526020600020906003020160405180606001604052908160008201548152602001600182015481526020016002820160009054906101000a900473ffffffffffffffffffffffffffffffffffffffff1673ffffffffffffffffffffffffffffffffffffffff1673ffffffffffffffffffffffffffffffffffffffff16815250509050919050565b8060010154816002015411614151576040517f08c379a000000000000000000000000000000000000000000000000000000000815260040161414890615ced565b60405180910390fd5b8060000181600101548154811061416b5761416a6156f5565b5b906000526020600020906003020160008082016000905560018201600090556002820160006101000a81549073ffffffffffffffffffffffffffffffffffffffff021916905550508060010160008154809291906141c89061594d565b919050555050565b6000600260003373ffffffffffffffffffffffffffffffffffffffff1673ffffffffffffffffffffffffffffffffffffffff16815260200190815260200160002060009054906101000a900460ff161561425f576040517f08c379a0000000000000000000000000000000000000000000000000000000008152600401614256906156d5565b60405180910390fd5b60006007600201548461427291906157c4565b905060076001015481111561428c5760076001015461428e565b805b9050600061429b846125de565b905081600460003373ffffffffffffffffffffffffffffffffffffffff1673ffffffffffffffffffffffffffffffffffffffff16815260200190815260200160002082815481106142ef576142ee6156f5565b5b9060005260206000209060030201600101600082825461430f91906157f5565b92505081905550819250505092915050565b600260003373ffffffffffffffffffffffffffffffffffffffff1673ffffffffffffffffffffffffffffffffffffffff16815260200190815260200160002060009054906101000a900460ff16156143ae576040517f08c379a00000000000000000000000000000000000000000000000000000000081526004016143a5906156d5565b60405180910390fd5b61442f60405180606001604052804281526020018481526020018373ffffffffffffffffffffffffffffffffffffffff16815250600a60003373ffffffffffffffffffffffffffffffffffffffff1673ffffffffffffffffffffffffffffffffffffffff16815260200190815260200160002061447390919063ffffffff16565b61446f816040518060400160405280600681526020017f4561726e6564000000000000000000000000000000000000000000000000000081525084612ea3565b5050565b81600001819080600181540180825580915050600190039060005260206000209060030201600090919091909150600082015181600001556020820151816001015560408201518160020160006101000a81548173ffffffffffffffffffffffffffffffffffffffff021916908373ffffffffffffffffffffffffffffffffffffffff16021790555050507fffffffffffffffffffffffffffffffffffffffffffffffffffffffffffffffff82600101540361453457600082600101819055505b8160020160008154809291906145499061594d565b91905055505050565b60405180606001604052806000815260200160008152602001600081525090565b604051806101a00160405280600081526020016060815260200160608152602001606081526020016000815260200160008152602001600081526020016000815260200160008152602001600081526020016000815260200160008152602001600081525090565b5080546145e7906153b4565b6000825580601f106145f95750614618565b601f016020900490600052602060002090810190614617919061467d565b5b50565b6040518060600160405280600061ffff168152602001600060ff168152602001600060ff1681525090565b60405180606001604052806000815260200160008152602001600073ffffffffffffffffffffffffffffffffffffffff1681525090565b5b8082111561469657600081600090555060010161467e565b5090565b6000604051905090565b600080fd5b600080fd5b600080fd5b600080fd5b6000601f19601f8301169050919050565b7f4e487b7100000000000000000000000000000000000000000000000000000000600052604160045260246000fd5b614701826146b8565b810181811067ffffffffffffffff821117156147205761471f6146c9565b5b80604052505050565b600061473361469a565b905061473f82826146f8565b919050565b600067ffffffffffffffff82111561475f5761475e6146c9565b5b614768826146b8565b9050602081019050919050565b82818337600083830152505050565b600061479761479284614744565b614729565b9050828152602081018484840111156147b3576147b26146b3565b5b6147be848285614775565b509392505050565b600082601f8301126147db576147da6146ae565b5b81356147eb848260208601614784565b91505092915050565b60006020828403121561480a576148096146a4565b5b600082013567ffffffffffffffff811115614828576148276146a9565b5b614834848285016147c6565b91505092915050565b600073ffffffffffffffffffffffffffffffffffffffff82169050919050565b60006148688261483d565b9050919050565b6148788161485d565b811461488357600080fd5b50565b6000813590506148958161486f565b92915050565b6000819050919050565b6148ae8161489b565b81146148b957600080fd5b50565b6000813590506148cb816148a5565b92915050565b6000806000606084860312156148ea576148e96146a4565b5b60006148f886828701614886565b9350506020614909868287016148bc565b925050604061491a868287016148bc565b9150509250925092565b61492d8161489b565b82525050565b60006020820190506149486000830184614924565b92915050565b6000806000806000806000806000806101408b8d031215614972576149716146a4565b5b60008b013567ffffffffffffffff8111156149905761498f6146a9565b5b61499c8d828e016147c6565b9a505060208b013567ffffffffffffffff8111156149bd576149bc6146a9565b5b6149c98d828e016147c6565b99505060408b013567ffffffffffffffff8111156149ea576149e96146a9565b5b6149f68d828e016147c6565b9850506060614a078d828e016148bc565b9750506080614a188d828e016148bc565b96505060a0614a298d828e016148bc565b95505060c0614a3a8d828e016148bc565b94505060e0614a4b8d828e016148bc565b935050610100614a5d8d828e016148bc565b925050610120614a6f8d828e016148bc565b9150509295989b9194979a5092959850565b600081519050919050565b600082825260208201905092915050565b6000819050602082019050919050565b614ab68161489b565b82525050565b614ac58161485d565b82525050565b60a082016000820151614ae16000850182614aad565b506020820151614af46020850182614abc565b506040820151614b076040850182614aad565b506060820151614b1a6060850182614aad565b506080820151614b2d6080850182614aad565b50505050565b6000614b3f8383614acb565b60a08301905092915050565b6000602082019050919050565b6000614b6382614a81565b614b6d8185614a8c565b9350614b7883614a9d565b8060005b83811015614ba9578151614b908882614b33565b9750614b9b83614b4b565b925050600181019050614b7c565b5085935050505092915050565b60006020820190508181036000830152614bd08184614b58565b905092915050565b600060208284031215614bee57614bed6146a4565b5b6000614bfc848285016148bc565b91505092915050565b60008115159050919050565b614c1a81614c05565b82525050565b6000602082019050614c356000830184614c11565b92915050565b600080600060608486031215614c5457614c536146a4565b5b6000614c62868287016148bc565b9350506020614c73868287016148bc565b9250506040614c84868287016148bc565b9150509250925092565b600081519050919050565b600082825260208201905092915050565b6000819050602082019050919050565b606082016000820151614cd06000850182614abc565b506020820151614ce36020850182614aad565b506040820151614cf66040850182614aad565b50505050565b6000614d088383614cba565b60608301905092915050565b6000602082019050919050565b6000614d2c82614c8e565b614d368185614c99565b9350614d4183614caa565b8060005b83811015614d72578151614d598882614cfc565b9750614d6483614d14565b925050600181019050614d45565b5085935050505092915050565b60006020820190508181036000830152614d998184614d21565b905092915050565b614daa8161485d565b82525050565b6000602082019050614dc56000830184614da1565b92915050565b600060208284031215614de157614de06146a4565b5b6000614def84828501614886565b91505092915050565b606082016000820151614e0e6000850182614aad565b506020820151614e216020850182614aad565b506040820151614e346040850182614aad565b50505050565b6000606082019050614e4f6000830184614df8565b92915050565b600081519050919050565b600082825260208201905092915050565b6000819050602082019050919050565b600081519050919050565b600082825260208201905092915050565b60005b83811015614ebb578082015181840152602081019050614ea0565b60008484015250505050565b6000614ed282614e81565b614edc8185614e8c565b9350614eec818560208601614e9d565b614ef5816146b8565b840191505092915050565b600061ffff82169050919050565b614f1781614f00565b82525050565b600060ff82169050919050565b614f3381614f1d565b82525050565b606082016000820151614f4f6000850182614f0e565b506020820151614f626020850182614f2a565b506040820151614f756040850182614f2a565b50505050565b600060c083016000830151614f936000860182614abc565b5060208301518482036020860152614fab8282614ec7565b9150506040830151614fc06040860182614aad565b506060830151614fd36060860182614f39565b508091505092915050565b6000614fea8383614f7b565b905092915050565b6000602082019050919050565b600061500a82614e55565b6150148185614e60565b93508360208202850161502685614e71565b8060005b8581101561506257848403895281516150438582614fde565b945061504e83614ff2565b925060208a0199505060018101905061502a565b50829750879550505050505092915050565b6000602082019050818103600083015261508e8184614fff565b905092915050565b600081519050919050565b600082825260208201905092915050565b6000819050602082019050919050565b60006101a0830160008301516150db6000860182614aad565b50602083015184820360208601526150f38282614ec7565b9150506040830151848203604086015261510d8282614ec7565b915050606083015184820360608601526151278282614ec7565b915050608083015161513c6080860182614aad565b5060a083015161514f60a0860182614aad565b5060c083015161516260c0860182614aad565b5060e083015161517560e0860182614aad565b5061010083015161518a610100860182614aad565b5061012083015161519f610120860182614aad565b506101408301516151b4610140860182614aad565b506101608301516151c9610160860182614aad565b506101808301516151de610180860182614aad565b508091505092915050565b60006151f583836150c2565b905092915050565b6000602082019050919050565b600061521582615096565b61521f81856150a1565b935083602082028501615231856150b2565b8060005b8581101561526d578484038952815161524e85826151e9565b9450615259836151fd565b925060208a01995050600181019050615235565b50829750879550505050505092915050565b600082825260208201905092915050565b600061529b82614e81565b6152a5818561527f565b93506152b5818560208601614e9d565b6152be816146b8565b840191505092915050565b600060408201905081810360008301526152e3818561520a565b905081810360208301526152f78184615290565b90509392505050565b60008060408385031215615317576153166146a4565b5b600061532585828601614886565b9250506020615336858286016148bc565b9150509250929050565b6000606082019050818103600083015261535a818661520a565b90506153696020830185614924565b818103604083015261537b8184615290565b9050949350505050565b7f4e487b7100000000000000000000000000000000000000000000000000000000600052602260045260246000fd5b600060028204905060018216806153cc57607f821691505b6020821081036153df576153de615385565b5b50919050565b60008190508160005260206000209050919050565b60006020601f8301049050919050565b600082821b905092915050565b6000600883026154477fffffffffffffffffffffffffffffffffffffffffffffffffffffffffffffffff8261540a565b615451868361540a565b95508019841693508086168417925050509392505050565b6000819050919050565b600061548e6154896154848461489b565b615469565b61489b565b9050919050565b6000819050919050565b6154a883615473565b6154bc6154b482615495565b848454615417565b825550505050565b600090565b6154d16154c4565b6154dc81848461549f565b505050565b5b81811015615500576154f56000826154c9565b6001810190506154e2565b5050565b601f82111561554557615516816153e5565b61551f846153fa565b8101602085101561552e578190505b61554261553a856153fa565b8301826154e1565b50505b505050565b600082821c905092915050565b60006155686000198460080261554a565b1980831691505092915050565b60006155818383615557565b9150826002028217905092915050565b61559a82614e81565b67ffffffffffffffff8111156155b3576155b26146c9565b5b6155bd82546153b4565b6155c8828285615504565b600060209050601f8311600181146155fb57600084156155e9578287015190505b6155f38582615575565b86555061565b565b601f198416615609866153e5565b60005b828110156156315784890151825560018201915060208501945060208101905061560c565b8683101561564e578489015161564a601f891682615557565b8355505b6001600288020188555050505b505050505050565b7f4f6e6c7920637573746f6d65722063616e2063616c6c20746869732066756e6360008201527f74696f6e00000000000000000000000000000000000000000000000000000000602082015250565b60006156bf60248361527f565b91506156ca82615663565b604082019050919050565b600060208201905081810360008301526156ee816156b2565b9050919050565b7f4e487b7100000000000000000000000000000000000000000000000000000000600052603260045260246000fd5b7f4e487b7100000000000000000000000000000000000000000000000000000000600052601160045260246000fd5b600061575e8261489b565b91506157698361489b565b92508282026157778161489b565b9150828204841483151761578e5761578d615724565b5b5092915050565b7f4e487b7100000000000000000000000000000000000000000000000000000000600052601260045260246000fd5b60006157cf8261489b565b91506157da8361489b565b9250826157ea576157e9615795565b5b828204905092915050565b60006158008261489b565b915061580b8361489b565b925082820190508082111561582357615822615724565b5b92915050565b7f4f6e6c79206d65726368616e742063616e2063616c6c20746869732066756e6360008201527f74696f6e00000000000000000000000000000000000000000000000000000000602082015250565b600061588560248361527f565b915061589082615829565b604082019050919050565b600060208201905081810360008301526158b481615878565b9050919050565b7f4f6e6c79206f776e65722063616e2063616c6c20746869732066756e6374696f60008201527f6e00000000000000000000000000000000000000000000000000000000000000602082015250565b600061591760218361527f565b9150615922826158bb565b604082019050919050565b600060208201905081810360008301526159468161590a565b9050919050565b60006159588261489b565b91507fffffffffffffffffffffffffffffffffffffffffffffffffffffffffffffffff820361598a57615989615724565b5b600182019050919050565b7f4e487b7100000000000000000000000000000000000000000000000000000000600052600160045260246000fd5b60006159cf8261489b565b91506159da8361489b565b92508282039050818111156159f2576159f1615724565b5b92915050565b6000819050919050565b615a13615a0e8261489b565b6159f8565b82525050565b60008160601b9050919050565b6000615a3182615a19565b9050919050565b6000615a4382615a26565b9050919050565b615a5b615a568261485d565b615a38565b82525050565b6000615a6d8286615a02565b602082019150615a7d8285615a4a565b601482019150615a8d8284615a02565b602082019150819050949350505050565b7f4e487b7100000000000000000000000000000000000000000000000000000000600052603160045260246000fd5b600081549050615adc816153b4565b9050919050565b818103615af1575050615bc9565b615afa82615acd565b67ffffffffffffffff811115615b1357615b126146c9565b5b615b1d82546153b4565b615b28828285615504565b6000601f831160018114615b575760008415615b45578287015490505b615b4f8582615575565b865550615bc2565b601f198416615b65876153e5565b9650615b70866153e5565b60005b82811015615b9857848901548255600182019150600185019450602081019050615b73565b86831015615bb55784890154615bb1601f891682615557565b8355505b6001600288020188555050505b5050505050505b565b6000615bd682614f00565b9150615be183614f00565b9250828203905061ffff811115615bfb57615bfa615724565b5b92915050565b6000615c0c82614f00565b9150615c1783614f00565b9250828201905061ffff811115615c3157615c30615724565b5b92915050565b6000615c4282614f1d565b9150615c4d83614f1d565b9250828201905060ff811115615c6657615c65615724565b5b92915050565b6000615c7782614f1d565b9150615c8283614f1d565b9250828203905060ff811115615c9b57615c9a615724565b5b92915050565b7f517565756520697320656d707479000000000000000000000000000000000000600082015250565b6000615cd7600e8361527f565b9150615ce282615ca1565b602082019050919050565b60006020820190508181036000830152615d0681615cca565b905091905056fea264697066735822122021e9265c0bcb19528a510acd57575d2815e371d3386446dd807bfae53decb28c64736f6c63430008130033",
  "linkReferences": {},
  "deployedLinkReferences": {}
}