{
  "_format": "hh-sol-artifact-1",
  "contractName": "LoyaltyProgram",
  "sourceName": "contracts/LoyaltyProgram.sol",
  "abi": [
    {
      "inputs": [],
      "stateMutability": "nonpayable",
      "type": "constructor"
    },
    {
      "inputs": [
        {
          "internalType": "string",
          "name": "title",
          "type": "string"
        },
        {
          "internalType": "string",
          "name": "desc",
          "type": "string"
        },
        {
          "internalType": "string",
          "name": "imgURL",
          "type": "string"
        },
        {
          "internalType": "uint256",
          "name": "coinValue",
          "type": "uint256"
        },
        {
          "internalType": "uint256",
          "name": "minCoin",
          "type": "uint256"
        },
        {
          "internalType": "uint256",
          "name": "minimumOrderValue",
          "type": "uint256"
        },
        {
          "internalType": "uint256",
          "name": "disPercent",
          "type": "uint256"
        },
        {
          "internalType": "uint256",
          "name": "disMaxVal",
          "type": "uint256"
        },
        {
          "internalType": "uint256",
          "name": "expiryInSeconds",
          "type": "uint256"
        },
        {
          "internalType": "uint256",
          "name": "quantLmt",
          "type": "uint256"
        }
      ],
      "name": "addReward",
      "outputs": [],
      "stateMutability": "nonpayable",
      "type": "function"
    },
    {
      "inputs": [
        {
          "internalType": "address",
          "name": "merchant",
          "type": "address"
        }
      ],
      "name": "customerBalance",
      "outputs": [
        {
          "internalType": "uint256",
          "name": "",
          "type": "uint256"
        }
      ],
      "stateMutability": "view",
      "type": "function"
    },
    {
      "inputs": [],
      "name": "customerTransaction",
      "outputs": [
        {
          "components": [
            {
              "internalType": "address",
              "name": "merchant",
              "type": "address"
            },
            {
              "internalType": "string",
              "name": "status",
              "type": "string"
            },
            {
              "internalType": "uint256",
              "name": "value",
              "type": "uint256"
            },
            {
              "components": [
                {
                  "internalType": "uint16",
                  "name": "year",
                  "type": "uint16"
                },
                {
                  "internalType": "uint8",
                  "name": "month",
                  "type": "uint8"
                },
                {
                  "internalType": "uint8",
                  "name": "day",
                  "type": "uint8"
                }
              ],
              "internalType": "struct DtLibrary.Date",
              "name": "timestamp",
              "type": "tuple"
            }
          ],
          "internalType": "struct LoyaltyProgram.Transaction[]",
          "name": "",
          "type": "tuple[]"
        }
      ],
      "stateMutability": "view",
      "type": "function"
    },
    {
      "inputs": [
        {
          "internalType": "uint256",
          "name": "id",
          "type": "uint256"
        }
      ],
      "name": "deleteReward",
      "outputs": [],
      "stateMutability": "nonpayable",
      "type": "function"
    },
    {
      "inputs": [
        {
          "internalType": "address",
          "name": "merchant",
          "type": "address"
        }
      ],
      "name": "fetchAllReward",
      "outputs": [
        {
          "components": [
            {
              "internalType": "uint256",
              "name": "id",
              "type": "uint256"
            },
            {
              "internalType": "string",
              "name": "title",
              "type": "string"
            },
            {
              "internalType": "string",
              "name": "desc",
              "type": "string"
            },
            {
              "internalType": "string",
              "name": "imgURL",
              "type": "string"
            },
            {
              "internalType": "uint256",
              "name": "coinValue",
              "type": "uint256"
            },
            {
              "internalType": "uint256",
              "name": "minCoin",
              "type": "uint256"
            },
            {
              "internalType": "uint256",
              "name": "minOdrVal",
              "type": "uint256"
            },
            {
              "internalType": "uint256",
              "name": "disPercent",
              "type": "uint256"
            },
            {
              "internalType": "uint256",
              "name": "disMaxVal",
              "type": "uint256"
            },
            {
              "internalType": "uint256",
              "name": "expiryTime",
              "type": "uint256"
            },
            {
              "internalType": "uint256",
              "name": "timestamp",
              "type": "uint256"
            },
            {
              "internalType": "uint256",
              "name": "quantLmt",
              "type": "uint256"
            },
            {
              "internalType": "uint256",
              "name": "quantOver",
              "type": "uint256"
            }
          ],
          "internalType": "struct LoyaltyProgram.Reward[]",
          "name": "",
          "type": "tuple[]"
        }
      ],
      "stateMutability": "view",
      "type": "function"
    },
    {
      "inputs": [],
      "name": "getMerchantTokenomics",
      "outputs": [
        {
          "components": [
            {
              "internalType": "uint256",
              "name": "minOdrVal",
              "type": "uint256"
            },
            {
              "internalType": "uint256",
              "name": "maxCoinValue",
              "type": "uint256"
            },
            {
              "internalType": "uint256",
              "name": "currPerCoin",
              "type": "uint256"
            }
          ],
          "internalType": "struct LoyaltyProgram.Tokenomics",
          "name": "",
          "type": "tuple"
        }
      ],
      "stateMutability": "view",
      "type": "function"
    },
    {
      "inputs": [],
      "name": "owner",
      "outputs": [
        {
          "internalType": "address",
          "name": "",
          "type": "address"
        }
      ],
      "stateMutability": "view",
      "type": "function"
    },
    {
      "inputs": [
        {
          "internalType": "address",
          "name": "merchant",
          "type": "address"
        },
        {
          "internalType": "uint256",
          "name": "orderValue",
          "type": "uint256"
        }
      ],
      "name": "purchase",
      "outputs": [],
      "stateMutability": "nonpayable",
      "type": "function"
    },
    {
      "inputs": [
        {
          "internalType": "address",
          "name": "merchant",
          "type": "address"
        },
        {
          "internalType": "uint256",
          "name": "id",
          "type": "uint256"
        },
        {
          "internalType": "uint256",
          "name": "orderValue",
          "type": "uint256"
        }
      ],
      "name": "redeemReward",
      "outputs": [
        {
          "internalType": "uint256",
          "name": "",
          "type": "uint256"
        }
      ],
      "stateMutability": "nonpayable",
      "type": "function"
    },
    {
      "inputs": [],
      "name": "setMerchant",
      "outputs": [],
      "stateMutability": "nonpayable",
      "type": "function"
    },
    {
      "inputs": [
        {
          "internalType": "uint256",
          "name": "minOdrVal",
          "type": "uint256"
        },
        {
          "internalType": "uint256",
          "name": "maxCoinValue",
          "type": "uint256"
        },
        {
          "internalType": "uint256",
          "name": "currPerCoin",
          "type": "uint256"
        }
      ],
      "name": "setMerchantTokenomics",
      "outputs": [],
      "stateMutability": "nonpayable",
      "type": "function"
    }
  ],
  "bytecode": "0x6080604052600080556040518060600160405280606481526020016032815260200160328152506005600082015181600001556020820151816001015560408201518160020155505034801561005457600080fd5b5033600160006101000a81548173ffffffffffffffffffffffffffffffffffffffff021916908373ffffffffffffffffffffffffffffffffffffffff160217905550600160026000600160009054906101000a900473ffffffffffffffffffffffffffffffffffffffff1673ffffffffffffffffffffffffffffffffffffffff1673ffffffffffffffffffffffffffffffffffffffff16815260200190815260200160002060006101000a81548160ff0219169083151502179055506132588061011f6000396000f3fe608060405234801561001057600080fd5b50600436106100a95760003560e01c80638de93222116100715780638de9322214610164578063a2a6368714610180578063a35c34af1461019e578063b2600f0e146101bc578063e7cf1ab7146101ec578063efe71e6114610208576100a9565b8063077b246b146100ae57806314705fc5146100de57806337ebe47b146100fa57806357e64aea1461012a5780638da5cb5b14610146575b600080fd5b6100c860048036038101906100c39190612021565b610212565b6040516100d59190612083565b60405180910390f35b6100f860048036038101906100f391906121e4565b610879565b005b610114600480360381019061010f9190612317565b610a8f565b6040516101219190612083565b60405180910390f35b610144600480360381019061013f9190612344565b610ba2565b005b61014e610c75565b60405161015b91906123a6565b60405180910390f35b61017e600480360381019061017991906123c1565b610c9b565b005b610188610eba565b6040516101959190612452565b60405180910390f35b6101a6610ef2565b6040516101b3919061269b565b60405180910390f35b6101d660048036038101906101d19190612317565b61117b565b6040516101e391906128a6565b60405180910390f35b610206600480360381019061020191906128c8565b611434565b005b610210611772565b005b6000600260003373ffffffffffffffffffffffffffffffffffffffff1673ffffffffffffffffffffffffffffffffffffffff16815260200190815260200160002060009054906101000a900460ff16156102a1576040517f08c379a000000000000000000000000000000000000000000000000000000000815260040161029890612978565b60405180910390fd5b60008290506000600360003373ffffffffffffffffffffffffffffffffffffffff1673ffffffffffffffffffffffffffffffffffffffff16815260200190815260200160002060008773ffffffffffffffffffffffffffffffffffffffff1673ffffffffffffffffffffffffffffffffffffffff168152602001908152602001600020549050600061033387876117cc565b90506000600460008973ffffffffffffffffffffffffffffffffffffffff1673ffffffffffffffffffffffffffffffffffffffff168152602001908152602001600020828154811061038857610387612998565b5b90600052602060002090600d0201604051806101a0016040529081600082015481526020016001820180546103bc906129f6565b80601f01602080910402602001604051908101604052809291908181526020018280546103e8906129f6565b80156104355780601f1061040a57610100808354040283529160200191610435565b820191906000526020600020905b81548152906001019060200180831161041857829003601f168201915b5050505050815260200160028201805461044e906129f6565b80601f016020809104026020016040519081016040528092919081815260200182805461047a906129f6565b80156104c75780601f1061049c576101008083540402835291602001916104c7565b820191906000526020600020905b8154815290600101906020018083116104aa57829003601f168201915b505050505081526020016003820180546104e0906129f6565b80601f016020809104026020016040519081016040528092919081815260200182805461050c906129f6565b80156105595780601f1061052e57610100808354040283529160200191610559565b820191906000526020600020905b81548152906001019060200180831161053c57829003601f168201915b50505050508152602001600482015481526020016005820154815260200160068201548152602001600782015481526020016008820154815260200160098201548152602001600a8201548152602001600b8201548152602001600c8201548152505090508060a0015183101580156105d6575080608001518310155b80156105e657508060c001518610155b1561086b5760006064858360e001516105ff9190612a56565b6106099190612ac7565b90508161010001518111156106215781610100015190505b6106348186611add90919063ffffffff16565b94506106c98260800151600360003373ffffffffffffffffffffffffffffffffffffffff1673ffffffffffffffffffffffffffffffffffffffff16815260200190815260200160002060008c73ffffffffffffffffffffffffffffffffffffffff1673ffffffffffffffffffffffffffffffffffffffff16815260200190815260200160002054611b0490919063ffffffff16565b600360003373ffffffffffffffffffffffffffffffffffffffff1673ffffffffffffffffffffffffffffffffffffffff16815260200190815260200160002060008b73ffffffffffffffffffffffffffffffffffffffff1673ffffffffffffffffffffffffffffffffffffffff168152602001908152602001600020819055506107bf6001600460008c73ffffffffffffffffffffffffffffffffffffffff1673ffffffffffffffffffffffffffffffffffffffff168152602001908152602001600020858154811061079f5761079e612998565b5b90600052602060002090600d0201600c0154611b0490919063ffffffff16565b600460008b73ffffffffffffffffffffffffffffffffffffffff1673ffffffffffffffffffffffffffffffffffffffff16815260200190815260200160002084815481106108105761080f612998565b5b90600052602060002090600d0201600c0181905550610869896040518060400160405280600681526020017f52656465656d00000000000000000000000000000000000000000000000000008152508460800151611b30565b505b839450505050509392505050565b600260003373ffffffffffffffffffffffffffffffffffffffff1673ffffffffffffffffffffffffffffffffffffffff16815260200190815260200160002060009054906101000a900460ff16610905576040517f08c379a00000000000000000000000000000000000000000000000000000000081526004016108fc90612b6a565b60405180910390fd5b6000610912600054611d48565b9050600460003373ffffffffffffffffffffffffffffffffffffffff1673ffffffffffffffffffffffffffffffffffffffff168152602001908152602001600020604051806101a001604052808381526020018d81526020018c81526020018b81526020018a8152602001898152602001888152602001878152602001868152602001858152602001428152602001848152602001600081525090806001815401808255809150506001900390600052602060002090600d02016000909190919091506000820151816000015560208201518160010190816109f49190612d36565b506040820151816002019081610a0a9190612d36565b506060820151816003019081610a209190612d36565b506080820151816004015560a0820151816005015560c0820151816006015560e082015181600701556101008201518160080155610120820151816009015561014082015181600a015561016082015181600b015561018082015181600c015550505050505050505050505050565b6000600260003373ffffffffffffffffffffffffffffffffffffffff1673ffffffffffffffffffffffffffffffffffffffff16815260200190815260200160002060009054906101000a900460ff1615610b1e576040517f08c379a0000000000000000000000000000000000000000000000000000000008152600401610b1590612978565b60405180910390fd5b600360003373ffffffffffffffffffffffffffffffffffffffff1673ffffffffffffffffffffffffffffffffffffffff16815260200190815260200160002060008373ffffffffffffffffffffffffffffffffffffffff1673ffffffffffffffffffffffffffffffffffffffff168152602001908152602001600020549050919050565b600160009054906101000a900473ffffffffffffffffffffffffffffffffffffffff1673ffffffffffffffffffffffffffffffffffffffff163373ffffffffffffffffffffffffffffffffffffffff1614610c32576040517f08c379a0000000000000000000000000000000000000000000000000000000008152600401610c2990612e7a565b60405180910390fd5b6040518060600160405280848152602001838152602001828152506005600082015181600001556020820151816001015560408201518160020155905050505050565b600160009054906101000a900473ffffffffffffffffffffffffffffffffffffffff1681565b600260003373ffffffffffffffffffffffffffffffffffffffff1673ffffffffffffffffffffffffffffffffffffffff16815260200190815260200160002060009054906101000a900460ff1615610d28576040517f08c379a0000000000000000000000000000000000000000000000000000000008152600401610d1f90612978565b60405180910390fd5b6005600001548110610eb657600060056002015482610d479190612ac7565b9050600560010154811115610d6157600560010154610d63565b805b9050610df481600360003373ffffffffffffffffffffffffffffffffffffffff1673ffffffffffffffffffffffffffffffffffffffff16815260200190815260200160002060008673ffffffffffffffffffffffffffffffffffffffff1673ffffffffffffffffffffffffffffffffffffffff16815260200190815260200160002054611b0490919063ffffffff16565b600360003373ffffffffffffffffffffffffffffffffffffffff1673ffffffffffffffffffffffffffffffffffffffff16815260200190815260200160002060008573ffffffffffffffffffffffffffffffffffffffff1673ffffffffffffffffffffffffffffffffffffffff16815260200190815260200160002081905550610eb4836040518060400160405280600481526020017f4561726e0000000000000000000000000000000000000000000000000000000081525083611b30565b505b5050565b610ec2611ed0565b60056040518060600160405290816000820154815260200160018201548152602001600282015481525050905090565b6060600260003373ffffffffffffffffffffffffffffffffffffffff1673ffffffffffffffffffffffffffffffffffffffff16815260200190815260200160002060009054906101000a900460ff1615610f81576040517f08c379a0000000000000000000000000000000000000000000000000000000008152600401610f7890612978565b60405180910390fd5b600860003373ffffffffffffffffffffffffffffffffffffffff1673ffffffffffffffffffffffffffffffffffffffff168152602001908152602001600020805480602002602001604051908101604052809291908181526020016000905b8282101561117257838290600052602060002090600402016040518060800160405290816000820160009054906101000a900473ffffffffffffffffffffffffffffffffffffffff1673ffffffffffffffffffffffffffffffffffffffff1673ffffffffffffffffffffffffffffffffffffffff168152602001600182018054611069906129f6565b80601f0160208091040260200160405190810160405280929190818152602001828054611095906129f6565b80156110e25780601f106110b7576101008083540402835291602001916110e2565b820191906000526020600020905b8154815290600101906020018083116110c557829003601f168201915b5050505050815260200160028201548152602001600382016040518060600160405290816000820160009054906101000a900461ffff1661ffff1661ffff1681526020016000820160029054906101000a900460ff1660ff1660ff1681526020016000820160039054906101000a900460ff1660ff1660ff16815250508152505081526020019060010190610fe0565b50505050905090565b6060600460008373ffffffffffffffffffffffffffffffffffffffff1673ffffffffffffffffffffffffffffffffffffffff168152602001908152602001600020805480602002602001604051908101604052809291908181526020016000905b8282101561142957838290600052602060002090600d0201604051806101a00160405290816000820154815260200160018201805461121a906129f6565b80601f0160208091040260200160405190810160405280929190818152602001828054611246906129f6565b80156112935780601f1061126857610100808354040283529160200191611293565b820191906000526020600020905b81548152906001019060200180831161127657829003601f168201915b505050505081526020016002820180546112ac906129f6565b80601f01602080910402602001604051908101604052809291908181526020018280546112d8906129f6565b80156113255780601f106112fa57610100808354040283529160200191611325565b820191906000526020600020905b81548152906001019060200180831161130857829003601f168201915b5050505050815260200160038201805461133e906129f6565b80601f016020809104026020016040519081016040528092919081815260200182805461136a906129f6565b80156113b75780601f1061138c576101008083540402835291602001916113b7565b820191906000526020600020905b81548152906001019060200180831161139a57829003601f168201915b50505050508152602001600482015481526020016005820154815260200160068201548152602001600782015481526020016008820154815260200160098201548152602001600a8201548152602001600b8201548152602001600c82015481525050815260200190600101906111dc565b505050509050919050565b600260003373ffffffffffffffffffffffffffffffffffffffff1673ffffffffffffffffffffffffffffffffffffffff16815260200190815260200160002060009054906101000a900460ff166114c0576040517f08c379a00000000000000000000000000000000000000000000000000000000081526004016114b790612b6a565b60405180910390fd5b60006114cc33836117cc565b90506000600460003373ffffffffffffffffffffffffffffffffffffffff1673ffffffffffffffffffffffffffffffffffffffff168152602001908152602001600020805490509050600460003373ffffffffffffffffffffffffffffffffffffffff1673ffffffffffffffffffffffffffffffffffffffff1681526020019081526020016000206001826115619190612e9a565b8154811061157257611571612998565b5b90600052602060002090600d0201600460003373ffffffffffffffffffffffffffffffffffffffff1673ffffffffffffffffffffffffffffffffffffffff16815260200190815260200160002083815481106115d1576115d0612998565b5b90600052602060002090600d020160008201548160000155600182018160010190816115fd9190612ee4565b50600282018160020190816116129190612ee4565b50600382018160030190816116279190612ee4565b50600482015481600401556005820154816005015560068201548160060155600782015481600701556008820154816008015560098201548160090155600a82015481600a0155600b82015481600b0155600c82015481600c0155905050600460003373ffffffffffffffffffffffffffffffffffffffff1673ffffffffffffffffffffffffffffffffffffffff1681526020019081526020016000208054806116d4576116d3612fcc565b5b60019003818190600052602060002090600d02016000808201600090556001820160006117019190611ef1565b6002820160006117119190611ef1565b6003820160006117219190611ef1565b600482016000905560058201600090556006820160009055600782016000905560088201600090556009820160009055600a820160009055600b820160009055600c82016000905550509055505050565b6001600260003373ffffffffffffffffffffffffffffffffffffffff1673ffffffffffffffffffffffffffffffffffffffff16815260200190815260200160002060006101000a81548160ff021916908315150217905550565b600080600460008573ffffffffffffffffffffffffffffffffffffffff1673ffffffffffffffffffffffffffffffffffffffff1681526020019081526020016000208054905090506000805b82811015611ad1576000600460008873ffffffffffffffffffffffffffffffffffffffff1673ffffffffffffffffffffffffffffffffffffffff168152602001908152602001600020828154811061187357611872612998565b5b90600052602060002090600d0201604051806101a0016040529081600082015481526020016001820180546118a7906129f6565b80601f01602080910402602001604051908101604052809291908181526020018280546118d3906129f6565b80156119205780601f106118f557610100808354040283529160200191611920565b820191906000526020600020905b81548152906001019060200180831161190357829003601f168201915b50505050508152602001600282018054611939906129f6565b80601f0160208091040260200160405190810160405280929190818152602001828054611965906129f6565b80156119b25780601f10611987576101008083540402835291602001916119b2565b820191906000526020600020905b81548152906001019060200180831161199557829003601f168201915b505050505081526020016003820180546119cb906129f6565b80601f01602080910402602001604051908101604052809291908181526020018280546119f7906129f6565b8015611a445780601f10611a1957610100808354040283529160200191611a44565b820191906000526020600020905b815481529060010190602001808311611a2757829003601f168201915b50505050508152602001600482015481526020016005820154815260200160068201548152602001600782015481526020016008820154815260200160098201548152602001600a8201548152602001600b8201548152602001600c82015481525050905085816000015103611abd5781925050611ad1565b508080611ac990612ffb565b915050611818565b50809250505092915050565b600082821115611af057611aef613043565b5b8183611afc9190612e9a565b905092915050565b6000808284611b139190613072565b905083811015611b2657611b25613043565b5b8091505092915050565b600260003373ffffffffffffffffffffffffffffffffffffffff1673ffffffffffffffffffffffffffffffffffffffff16815260200190815260200160002060009054906101000a900460ff1615611bbd576040517f08c379a0000000000000000000000000000000000000000000000000000000008152600401611bb490612978565b60405180910390fd5b6000611bc842611d92565b9050600860003373ffffffffffffffffffffffffffffffffffffffff1673ffffffffffffffffffffffffffffffffffffffff16815260200190815260200160002060405180608001604052808673ffffffffffffffffffffffffffffffffffffffff16815260200185815260200184815260200183815250908060018154018082558091505060019003906000526020600020906004020160009091909190915060008201518160000160006101000a81548173ffffffffffffffffffffffffffffffffffffffff021916908373ffffffffffffffffffffffffffffffffffffffff1602179055506020820151816001019081611cc59190612d36565b506040820151816002015560608201518160030160008201518160000160006101000a81548161ffff021916908361ffff16021790555060208201518160000160026101000a81548160ff021916908360ff16021790555060408201518160000160036101000a81548160ff021916908360ff1602179055505050505050505050565b600080423084604051602001611d609392919061310f565b6040516020818303038152906040528051906020012060001c90508280611d8690612ffb565b93505080915050919050565b611d9a611f31565b6000620151809050600261016d8285611db39190612ac7565b611dbd9190612ac7565b611dc79190612e9a565b6107b2611dd49190613072565b826000019061ffff16908161ffff1681525050600061016d8260026107b28660000151611e01919061314c565b611e0b9190613182565b61ffff16611e199190612a56565b611e239190612a56565b84611e2e9190612e9a565b90506001601e83611e3f9190612a56565b82611e4a9190612ac7565b611e5491906131b8565b836020019060ff16908160ff16815250506000601e8360018660200151611e7b91906131ed565b60ff16611e889190612a56565b611e929190612a56565b82611e9d9190612e9a565b905060018382611ead9190612ac7565b611eb791906131b8565b846040019060ff16908160ff1681525050505050919050565b60405180606001604052806000815260200160008152602001600081525090565b508054611efd906129f6565b6000825580601f10611f0f5750611f2e565b601f016020900490600052602060002090810190611f2d9190611f5c565b5b50565b6040518060600160405280600061ffff168152602001600060ff168152602001600060ff1681525090565b5b80821115611f75576000816000905550600101611f5d565b5090565b6000604051905090565b600080fd5b600080fd5b600073ffffffffffffffffffffffffffffffffffffffff82169050919050565b6000611fb882611f8d565b9050919050565b611fc881611fad565b8114611fd357600080fd5b50565b600081359050611fe581611fbf565b92915050565b6000819050919050565b611ffe81611feb565b811461200957600080fd5b50565b60008135905061201b81611ff5565b92915050565b60008060006060848603121561203a57612039611f83565b5b600061204886828701611fd6565b93505060206120598682870161200c565b925050604061206a8682870161200c565b9150509250925092565b61207d81611feb565b82525050565b60006020820190506120986000830184612074565b92915050565b600080fd5b600080fd5b6000601f19601f8301169050919050565b7f4e487b7100000000000000000000000000000000000000000000000000000000600052604160045260246000fd5b6120f1826120a8565b810181811067ffffffffffffffff821117156121105761210f6120b9565b5b80604052505050565b6000612123611f79565b905061212f82826120e8565b919050565b600067ffffffffffffffff82111561214f5761214e6120b9565b5b612158826120a8565b9050602081019050919050565b82818337600083830152505050565b600061218761218284612134565b612119565b9050828152602081018484840111156121a3576121a26120a3565b5b6121ae848285612165565b509392505050565b600082601f8301126121cb576121ca61209e565b5b81356121db848260208601612174565b91505092915050565b6000806000806000806000806000806101408b8d03121561220857612207611f83565b5b60008b013567ffffffffffffffff81111561222657612225611f88565b5b6122328d828e016121b6565b9a505060208b013567ffffffffffffffff81111561225357612252611f88565b5b61225f8d828e016121b6565b99505060408b013567ffffffffffffffff8111156122805761227f611f88565b5b61228c8d828e016121b6565b985050606061229d8d828e0161200c565b97505060806122ae8d828e0161200c565b96505060a06122bf8d828e0161200c565b95505060c06122d08d828e0161200c565b94505060e06122e18d828e0161200c565b9350506101006122f38d828e0161200c565b9250506101206123058d828e0161200c565b9150509295989b9194979a5092959850565b60006020828403121561232d5761232c611f83565b5b600061233b84828501611fd6565b91505092915050565b60008060006060848603121561235d5761235c611f83565b5b600061236b8682870161200c565b935050602061237c8682870161200c565b925050604061238d8682870161200c565b9150509250925092565b6123a081611fad565b82525050565b60006020820190506123bb6000830184612397565b92915050565b600080604083850312156123d8576123d7611f83565b5b60006123e685828601611fd6565b92505060206123f78582860161200c565b9150509250929050565b61240a81611feb565b82525050565b6060820160008201516124266000850182612401565b5060208201516124396020850182612401565b50604082015161244c6040850182612401565b50505050565b60006060820190506124676000830184612410565b92915050565b600081519050919050565b600082825260208201905092915050565b6000819050602082019050919050565b6124a281611fad565b82525050565b600081519050919050565b600082825260208201905092915050565b60005b838110156124e25780820151818401526020810190506124c7565b60008484015250505050565b60006124f9826124a8565b61250381856124b3565b93506125138185602086016124c4565b61251c816120a8565b840191505092915050565b600061ffff82169050919050565b61253e81612527565b82525050565b600060ff82169050919050565b61255a81612544565b82525050565b6060820160008201516125766000850182612535565b5060208201516125896020850182612551565b50604082015161259c6040850182612551565b50505050565b600060c0830160008301516125ba6000860182612499565b50602083015184820360208601526125d282826124ee565b91505060408301516125e76040860182612401565b5060608301516125fa6060860182612560565b508091505092915050565b600061261183836125a2565b905092915050565b6000602082019050919050565b60006126318261246d565b61263b8185612478565b93508360208202850161264d85612489565b8060005b85811015612689578484038952815161266a8582612605565b945061267583612619565b925060208a01995050600181019050612651565b50829750879550505050505092915050565b600060208201905081810360008301526126b58184612626565b905092915050565b600081519050919050565b600082825260208201905092915050565b6000819050602082019050919050565b60006101a0830160008301516127026000860182612401565b506020830151848203602086015261271a82826124ee565b9150506040830151848203604086015261273482826124ee565b9150506060830151848203606086015261274e82826124ee565b91505060808301516127636080860182612401565b5060a083015161277660a0860182612401565b5060c083015161278960c0860182612401565b5060e083015161279c60e0860182612401565b506101008301516127b1610100860182612401565b506101208301516127c6610120860182612401565b506101408301516127db610140860182612401565b506101608301516127f0610160860182612401565b50610180830151612805610180860182612401565b508091505092915050565b600061281c83836126e9565b905092915050565b6000602082019050919050565b600061283c826126bd565b61284681856126c8565b935083602082028501612858856126d9565b8060005b8581101561289457848403895281516128758582612810565b945061288083612824565b925060208a0199505060018101905061285c565b50829750879550505050505092915050565b600060208201905081810360008301526128c08184612831565b905092915050565b6000602082840312156128de576128dd611f83565b5b60006128ec8482850161200c565b91505092915050565b600082825260208201905092915050565b7f4f6e6c7920637573746f6d65722063616e2063616c6c20746869732066756e6360008201527f74696f6e00000000000000000000000000000000000000000000000000000000602082015250565b60006129626024836128f5565b915061296d82612906565b604082019050919050565b6000602082019050818103600083015261299181612955565b9050919050565b7f4e487b7100000000000000000000000000000000000000000000000000000000600052603260045260246000fd5b7f4e487b7100000000000000000000000000000000000000000000000000000000600052602260045260246000fd5b60006002820490506001821680612a0e57607f821691505b602082108103612a2157612a206129c7565b5b50919050565b7f4e487b7100000000000000000000000000000000000000000000000000000000600052601160045260246000fd5b6000612a6182611feb565b9150612a6c83611feb565b9250828202612a7a81611feb565b91508282048414831517612a9157612a90612a27565b5b5092915050565b7f4e487b7100000000000000000000000000000000000000000000000000000000600052601260045260246000fd5b6000612ad282611feb565b9150612add83611feb565b925082612aed57612aec612a98565b5b828204905092915050565b7f4f6e6c79206d65726368616e742063616e2063616c6c20746869732066756e6360008201527f74696f6e00000000000000000000000000000000000000000000000000000000602082015250565b6000612b546024836128f5565b9150612b5f82612af8565b604082019050919050565b60006020820190508181036000830152612b8381612b47565b9050919050565b60008190508160005260206000209050919050565b60006020601f8301049050919050565b600082821b905092915050565b600060088302612bec7fffffffffffffffffffffffffffffffffffffffffffffffffffffffffffffffff82612baf565b612bf68683612baf565b95508019841693508086168417925050509392505050565b6000819050919050565b6000612c33612c2e612c2984611feb565b612c0e565b611feb565b9050919050565b6000819050919050565b612c4d83612c18565b612c61612c5982612c3a565b848454612bbc565b825550505050565b600090565b612c76612c69565b612c81818484612c44565b505050565b5b81811015612ca557612c9a600082612c6e565b600181019050612c87565b5050565b601f821115612cea57612cbb81612b8a565b612cc484612b9f565b81016020851015612cd3578190505b612ce7612cdf85612b9f565b830182612c86565b50505b505050565b600082821c905092915050565b6000612d0d60001984600802612cef565b1980831691505092915050565b6000612d268383612cfc565b9150826002028217905092915050565b612d3f826124a8565b67ffffffffffffffff811115612d5857612d576120b9565b5b612d6282546129f6565b612d6d828285612ca9565b600060209050601f831160018114612da05760008415612d8e578287015190505b612d988582612d1a565b865550612e00565b601f198416612dae86612b8a565b60005b82811015612dd657848901518255600182019150602085019450602081019050612db1565b86831015612df35784890151612def601f891682612cfc565b8355505b6001600288020188555050505b505050505050565b7f4f6e6c79206f776e65722063616e2063616c6c20746869732066756e6374696f60008201527f6e00000000000000000000000000000000000000000000000000000000000000602082015250565b6000612e646021836128f5565b9150612e6f82612e08565b604082019050919050565b60006020820190508181036000830152612e9381612e57565b9050919050565b6000612ea582611feb565b9150612eb083611feb565b9250828203905081811115612ec857612ec7612a27565b5b92915050565b600081549050612edd816129f6565b9050919050565b818103612ef2575050612fca565b612efb82612ece565b67ffffffffffffffff811115612f1457612f136120b9565b5b612f1e82546129f6565b612f29828285612ca9565b6000601f831160018114612f585760008415612f46578287015490505b612f508582612d1a565b865550612fc3565b601f198416612f6687612b8a565b9650612f7186612b8a565b60005b82811015612f9957848901548255600182019150600185019450602081019050612f74565b86831015612fb65784890154612fb2601f891682612cfc565b8355505b6001600288020188555050505b5050505050505b565b7f4e487b7100000000000000000000000000000000000000000000000000000000600052603160045260246000fd5b600061300682611feb565b91507fffffffffffffffffffffffffffffffffffffffffffffffffffffffffffffffff820361303857613037612a27565b5b600182019050919050565b7f4e487b7100000000000000000000000000000000000000000000000000000000600052600160045260246000fd5b600061307d82611feb565b915061308883611feb565b92508282019050808211156130a05761309f612a27565b5b92915050565b6000819050919050565b6130c16130bc82611feb565b6130a6565b82525050565b60008160601b9050919050565b60006130df826130c7565b9050919050565b60006130f1826130d4565b9050919050565b61310961310482611fad565b6130e6565b82525050565b600061311b82866130b0565b60208201915061312b82856130f8565b60148201915061313b82846130b0565b602082019150819050949350505050565b600061315782612527565b915061316283612527565b9250828203905061ffff81111561317c5761317b612a27565b5b92915050565b600061318d82612527565b915061319883612527565b9250828201905061ffff8111156131b2576131b1612a27565b5b92915050565b60006131c382612544565b91506131ce83612544565b9250828201905060ff8111156131e7576131e6612a27565b5b92915050565b60006131f882612544565b915061320383612544565b9250828203905060ff81111561321c5761321b612a27565b5b9291505056fea2646970667358221220337e249db3cb58fc8a371c7748a5d06960b531b0a4e4cb9c5254ce21f5af1d8d64736f6c63430008130033",
  "linkReferences": {},
  "deployedLinkReferences": {}
}